:2000000096C1FECFFDCFFCCFFBCFFACFF9CFF8CFF7CF44C1F5CFF4CFF3CFF2CFF1CF00FF6F
:20002000FFFFFFFFFFFFFFFFFFFFFFFFFFFFB0E0B093640000916600003218F4B6E0B09389
:20004000640000916600053118F4B6E1B0936400009166000C3018F4BBE6B09364000091AD
:200060006600003019F4BCEDB0936400089500916600033320F4BFE0B093650033C00091E4
:2000800066000D3420F4BDE0B09365002BC000916600003620F4BBE0B093650023C000917D
:2000A0006600003820F4B9E0B09365001BC0009166000B3A20F4B7E0B093650013C000917F
:2000C00066000B3D20F4B6E0B09365000BC000916600063E20F4B4E0B093650003C0B3E074
:2000E000B09365000895B8B3BB7FB8BBB8B3B77FB8BB27E21DE007E20A95F1F71A95E1F792
:200100002A95D1F70000B8B3B460B8BBB8B3B860B8BB20E119E30EE00A95F1F71A95E1F777
:200120002A95D1F700000000B8B3BB7FB8BBB8B3B77FB8BB20E119E30EE00A95F1F71A95EB
:20014000E1F72A95D1F700000000B8B3B460B8BBB8B3B860B8BB20E119E30EE00A95F1F7E6
:200160001A95E1F72A95D1F700000000B8B3BB7FB8BBB8B3B77FB8BB2DE419E100E50A95B6
:20018000F1F71A95E1F72A95D1F70000000006B2002702FC03950F5F00FBB8B3B3F9B8BB01
:2001A000089505900D920197E1F708950895BFB7BF77BFBF00916100073121F4B1E9B0937E
:2001C00061000BC000916100013921F4BFEFB093610003C0B7E1B0936100009161000093DC
:2001E000660081DF0BD0BFB7B068BFBF0895B0B7B068B0BFB9B7B062B9BF089518DF37DF23
:200200000091650000BFB0B7B068B0BF0EE414E020916600E22FF0E0E00FF11F04910BBD01
:200220000EE414E0E22FF0E0E00FF11F04910DBDB0B7B064B0BFB0E0BFBD0895BCEFB1BFEB
:20024000B7B3BE7FB7BBB7B3BD7FB7BBB7B3BF7EB7BBB8B3B260B8BBB8B3B061B8BBB7B30B
:20026000B460B7BBB7B3B860B7BBB7B3B062B7BBB8B3BF7DB8BB2DE419E100E50A95F1F785
:200280001A95E1F72A95D1F700000000B7E1B0936600009166000093610008950F920F9344
:2002A0001F93EF93FF93BF93BFB7BF93BFB7BF77BFBF00916400002391F4B6B308B2E894F8
:2002C000B2FF689402F808BAB6B308B2E894B3FF689403F808BABFB7B068BFBF1FC000912F
:2002E00063000F5F0093630010916300009164001017A0F0B6B308B2E894B2FF689402F841
:2003000008BAB6B308B2E894B3FF689403F808BAB1E0B0936300BFB7B068BFBFBF91BFBF00
:20032000BF91FF91EF911F910F910F901895BFE5BDBFB2E0BEBF0BD1CDB7DEB72397CDBF57
:20034000DEBF2196BFEFB0936200B0E0B093600006B2BB2700FCB395B98306B2BB2701FC12
:20036000B395BA836BDF43DF49DFB6B308B2E894B2FF689403F808BABFB7B068BFBFB6B3E6
:20038000B4FD11C02DE419E100E50A95F1F71A95E1F72A95D1F700000000B6B3B4FD02C07A
:2003A00005DF01C004DF06B2112700FC13950981011749F406B2BB2701FCB395BA830A819B
:2003C000002309F440C0B0E0B883B6B3B0FF03C008810F5F088306B2BB2700FCB395B983BB
:2003E000B6B3B1FF04C00881B3E00B27088306B2BB2701FCB395BA83009060001881101979
:20040000188300916000010F0093600010FF1BC0088101FF0DC010916600009162001017EC
:2004200030F4009166000F5F00936600E7DE0BC01091660000E0011730F40091660001503F
:2004400000936600DBDE9BCFFFCFFFFFFFFFE9F0DCC8B4A08C7864503C30C2AF9B88756157
:200460004E3A318E6B47413B37332F2F2D2AEDE1D6C2B2A4998E81776E665F59544F4B474C
:2004800043FBEDE1D6CBC2BAB2ABA39B958E89817A746E69655F5A554E4742F4E4CFBEAF48
:2004A000A3988C81787069625B55504C4844F9E4D2C3B6ABA1989089827C77726D696562C0
:2004C0005E5B585553504E4C4A4846444341FEF9F3EEE9E4DFDBD6D2CECBC7C3C0BDB9B6C3
:2004E000B3B0AEABA8A6A3A19F9C9A98969492908E8C8A898785848281FEFBF9F6F3EEE983
:20050000E4DFDBD6D2CECBC7C3C0BDB9B6AFA8A29C97928D8985817D7A7673706D68635FC5
:200520005B5854514E4B494440F3E6DBD0C7BEB6AF9F9287FAE9DBCEC2B8AF9F92877D7578
:1E05400058463A322C2723201D1B19161312A0E6B0E0EEE1F0E081E090E023DE08954D
:00000001FF
